:020000040800F2
:10000000F8550020350200083D0200083F020008B4
:1000100041020008430200084502000800000000F9
:10002000000000000000000000000000470200087F
:1000300049020008000000004B0200082D3D0008A6
:100040004F0200084F0200084F0200084F0200084C
:100050004F0200084F020008A3310008AF3100082A
:10006000BB310008C7310008D53100084F02000835
:100070004F0200084F0200084F0200084F0200081C
:100080000D3000084F0200084F0200084F02000820
:100090004F0200084F0200084F020008F13100082B
:1000A0004F0200084F0200084F0200084F020008EC
:1000B0004F0200084F020008953D0008193600085D
:1000C000A935000899360008293600084F020008B3
:1000D0004F020008054000084F0200084F020008C8
:1000E0004F0200084F0200084F02000800F002F81B
:1000F00000F090F80AA090E8000C82448344AAF132
:100100000107DA4501D100F085F8AFF2090EBAE82F
:100110000F0013F0010F18BFFB1A43F0010318473B
:10012000EC9400000C950000103A24BF78C878C108
:10013000FAD8520724BF30C830C144BF04680C60ED
:10014000704700000023002400250026103A28BF35
:1001500078C1FBD8520728BF30C148BF0B60704739
:100160006E2900F0F684702901F06580662909F097
:10017000F980652909F0F680672909F0F380612983
:1001800009F0F28003681B0A28BF41F08001692949
:1001900000F0F680642900F0F380752900F0F0800B
:1001A0006F2900F0F287782901F03180E92900F009
:1001B0008D87E42900F08A87F52900F08787EF29E9
:1001C00000F0EF87F82901F030800368DB0928BFD1
:1001D00041F08001632900F00E87732900F0138736
:1001E000E32901F04B83F32901F05083002070478D
:1001F0001FB501F029F904000020002108F0B8FB28
:10020000401C60600020002108F0C8FBE0601FBDBA
:1002100010B510BD01F098FD1146FFF7E9FF06F09B
:1002200019FD02F033F803B4FFF7F2FF03BC02F04C
:100230006BFA00000948804709480047FEE7FEE7DF
:10024000FEE7FEE7FEE7FEE7FEE7FEE7FEE7FEE786
:1002500004480549054A064B70470000353D000833
:10026000ED000008F84F0020F8550020F85100205C
:10027000F85100207CB51D4616460C00009001D0B8
:100280002044401E074B7B442A4669460190304675
:1002900000F087FE05461CB10020694600F094FE80
:1002A00028467CBD490D00000FB47CB50C0009AA9E
:1002B000009001D02044401E084B7B4469460190C9
:1002C000089800F06EFE05461CB10020694600F05B
:1002D0007BFE28467CBC5DF814FB0000150D000079
:1002E00070B5044685690068C10601D5302600E076
:1002F0002026C00707D070BDD4E9012130469047C1
:10030000206A401C20626D1EF6D570BD70B5044693
:1003100085690078C00707D170BDD4E9012120208C
:100320009047206A401C20626D1EF6D570BD70B5E6
:100330000C460546012A05D02878800600D5EA69D2
:10034000002302E0012305E05B1C934202D2E05C43
:100350000028F9D1A869E618C01AA861286A1844CB
:1003600028622846FFF7BCFF04E0D5E9012114F814
:10037000010B9047B442F8D32846FFF7C7FF70BD82
:100380002DE9F0410646002410687529314616A56E
:1003900010D000F073FB002802DA404213A507E0FA
:1003A00031688A0701D512A502E0490704D511A5D5
:1003B000012401E000F06BFB00210A2206F1240772
:1003C00009E0B0FBF2FCB0FBF2F302FB1C003030A2
:1003D00078541846491C0028F3D123462A46304653
:1003E000BDE8F04100F05CBB000000002D00000003
:1003F0002B000000200000002DE9F05F8946044634
:100400004FF0000ADFF874B1FB44C0F820A020468A
:10041000E1688847002874D0252806D0D4E9012156
:100420009047206A401C2062F1E700265F46204684
:10043000E16888472028054607DB312D05D2781969
:1004400010F8200C08B10643F1E7B00701D526F0FB
:100450000406C4F81CA00027C4F818A02A2D09D04F
:10046000284603F080FF38B304EB8708303DC8F816
:10047000185019E059F8041B204604EB87029161DB
:10048000E1688847012F054618D1E069002820DA85
:1004900026F020061DE0D8F8180000EB800005EBE0
:1004A00040003038C8F818002046E1688847054603
:1004B00003F059FF0028EED1012F0AD02E2D08D1CC
:1004C0002046E16888477F1C0546022F46F020063B
:1004D000C4DBA069002803DA404246F00106A061AF
:1004E000F00701D026F010066C2D0BD0682D09D036
:1004F0004C2D39D06A2D35D0742D35D07A2D33D08E
:1005000016E038E0E1682F4620468847B8420546A5
:1005100009D16C2F26D04FF48060E1680643204655
:100520008847054604E06C2F1AD04FF480700643CC
:100530000DB3A5F14100192802D8203546F4006614
:100540004A462946204626604E46FFF709FE80B1FE
:1005500001280BD0F61D26F0070000F1080956E728
:100560004020E4E78020D8E70020D6E706F1040920
:100570004DE7284652E7206ABDE8F09FA0900000B2
:100580000FB400B58DB010A9099000910B904FF0F9
:10059000FF300A9000200C900648784406900648E8
:1005A00078446A4607900F9909A800F055FE0DB0EF
:1005B0005DF814FBDB0C0000F30C00002DE9FF5F7D
:1005C0004FF000089946144646469169D2E901A7C2
:1005D000DDF838B001988847054659EA0B0005D088
:1005E00009E0A1690198761C88470546216A2846DA
:1005F00088470028F5D1681C03D05FEACA7005D08F
:1006000015E04FF0FF3004B0BDE8F09F2068011DF9
:100610002160D0F800800AE05FEACA7001D108F8D2
:10062000015BA169761C01987F1E88470546002F53
:100630001ADD681C18D0B9F1000F0DD0E81705EBD2
:10064000D060421120F01F0059F822102A1A012010
:1006500090400142E0D107E0BBF1000FDCD1284619
:10066000216A88470028D7D0E16901988847BBF103
:10067000000F07D1002E05DD5FEACA7002D100210C
:1006800088F80010A068B84203DDBBF1000F03D06A
:1006900017B16FF00100B6E73046B4E72DE9F05F1F
:1006A00093460F4680460446002600F0E3F9D0F852
:1006B0000090824614F8015B2DB100F0D3F9006878
:1006C000405DC007F6D12B2D02D02D2D1AD0641E0F
:1006D0000021CAF800105A463946204600F0ECFDC9
:1006E000014627B13868A04201D1C7F80080DAF886
:1006F0000000022809D0CAF80090700505D54842CC
:10070000BDE8F09F46F48066E2E70846F8E740EA75
:10071000010310B59B070FD1042A0DD310C808C9D7
:10072000121F9C42F8D020BA19BA884201D9012080
:1007300010BD4FF0FF3010BD1AB1D30703D0521CCB
:1007400007E0002010BD10F8013B11F8014B1B1B06
:1007500007D110F8013B11F8014B1B1B01D1921E70
:10076000F1D1184610BD10B5431C02E010F8011B72
:1007700071B18107FAD14FF0013202C88C1A8C4353
:1007800014EAC211F9D0C01A0A0603D0C01E10BD67
:10079000C01A10BD0A0401D0801E10BD0902FCD091
:1007A000401E10BD40EA010370B59B072ED14FF0EB
:1007B0000136042A2AD308C810C99D1B9D43121F65
:1007C00015EAC61517D0D8B2E1B2401A50EA056151
:1007D00010D198B2A1B2401A50EA05410AD123F0D3
:1007E0007F4024F07F41401A50EA052102D1180EC3
:1007F000A0EB146070BDA342DBD018BA21BA8842C6
:1008000001D9012070BD4FF0FF3070BD0AB9002042
:1008100070BD10F8013B11F8014B63B1A3420AD13E
:10082000521E08D010F8013B11F8014B1BB1A34236
:1008300001D1521EEDD1181B70BD032A40F2308049
:1008400010F0030C00F0158011F8013BBCF1020F11
:10085000624498BF11F801CB00F8013B38BF11F892
:10086000013BA2F1040298BF00F801CB38BF00F8A9
:10087000013B11F0030300F02580083AC0F0088026
:1008800051F8043B083A51F804CBA0E80810F5E70A
:10089000121D5CBF51F8043B40F8043BAFF30080ED
:1008A000D20724BF11F8013B11F801CB48BF11F862
:1008B000012B24BF00F8013B00F801CB48BF00F832
:1008C000012B704710B5203AC0F00B80B1E81850EA
:1008D000203AA0E81850B1E81850A0E81850BFF42A
:1008E000F5AF5FEA027C24BFB1E81850A0E81850C9
:1008F00044BF18C918C0BDE810405FEA827C24BF1D
:1009000051F8043B40F8043B08BF7047D20728BFAA
:1009100031F8023B48BF11F8012B28BF20F8023BF9
:1009200048BF00F8012B704702F0FF0343EA03229F
:1009300042EA024200F064BD4FF0000200B51346E7
:1009400094469646203922BFA0E80C50A0E80C50EF
:10095000B1F12001BFF4F7AF090728BFA0E80C50A0
:1009600048BF0CC05DF804EB890028BF40F8042B99
:1009700008BF704748BF20F8022B11F0804F18BF06
:1009800000F8012B704710B5044610F0030F08BFA4
:1009900011F0030F40F015804FF0013E121FC0F21E
:1009A0000E8051F8043BA3EB0E0C2CEA030C1CEA5E
:1009B000CE1C08BF40F8043BF0D0A1F1040102F1C5
:1009C0000402521E08DB11F8013B002B00F8013B2A
:1009D000F7D1114600F012FD204610BD4FF0013C4A
:1009E00050F8042B51F8043B9A4221D1A2EB0C039E
:1009F000934313EACC1317D150F8042B51F8043B5E
:100A00009A4215D1A2EB0C03934313EACC130BD1FA
:100A100050F8042B51F8043B9A4209D1A2EB0C0385
:100A2000934313EACC13DBD04FF00000704700BFB4
:100A3000D01A01BAB1FA81F101F0180122FA01F0DD
:100A4000CB40C1F12001DBB2C0B2C01A2CFA01F3D5
:100A5000D11A914311EAC311E6D17047704770472C
:100A60007047000010B500F0EFFC001D10BD00BF86
:100A7000017F000000487047944F002009684A0534
:100A800001D540B27047C905FCD500B2704709686E
:100A90004A0501D5C0B27047C905FCD580B2704780
:100AA0002DE9F0470D4699469246044600F1240888
:100AB0000168880604D5E06921F01001216000E09A
:100AC0000120A84201DD471B00E00027A1697A1937
:100AD00002EB0900081AA0612078C00602D4204663
:100AE000FFF7FEFB002608E0D4E901211AF8060012
:100AF0009047206A401C761C20624E45F4DB20782B
:100B0000C0060AD52046FFF7EBFB06E0D4E9012139
:100B100030209047206A401C2062381EA7F1010750
:100B2000F4DC07E0D4E9012118F805009047206AB9
:100B3000401C2062281EA5F10105F3DC2046FFF7CA
:100B4000E5FB2078000602D50220BDE8F0870120F1
:100B5000FBE711680268006A530501D508700AE0D6
:100B6000D30501D5088006E0130603D5C217C1E9F5
:100B7000000200E008600120704770472DE9FF4F38
:100B80000C461E464FF0FF378BB0D2E90001DDF86E
:100B900060800A908A46C1F30A5505B93D46002196
:100BA00008464FF00000BAF1000F00F4400005DAEB
:100BB00000EB80004FF4400101EA50004FEA9059E9
:100BC000B9F1010F00DDB9460A9850EA4A000ED08B
:100BD00044F61050A5F2FF3545432F14B8F1000F2D
:100BE0001ED07542291E1EDDC9F100021CE0B8F1BD
:100BF000010F4FF0000001D0302103E0F24305E087
:100C00002154401CB042FBDB30460022002121541D
:100C10000B99C1F80880C1E900200FB0BDE8F08F42
:100C2000BD1B6D1CDEE74A4600DA694206A800F0EB
:100C3000F9FF06AB93E8070003AB83E807005046D3
:100C40000A9901F07BFD8DE80700A0F500501F38E0
:100C500000900398002D0ADD42F21F014A46084425
:100C6000002303A90390684602F026F809E0A0F5E6
:100C700000504A461F38002303A90390684602F03B
:100C800045F88DE807000004000C03D04FF0FF305A
:100C9000410800E01046B8F1000F03D00022009296
:100CA00015461EE0751E05D400F0D2FB30326255A9
:100CB0006D1EF9D5B3460122084302D000227F1CE5
:100CC00004E02078302801D100227F1E002A0997F5
:100CD00084D01DE0112D07DA00F0BAFB30326255E6
:100CE0006D1C50EA0102F5D1084302D00098C8B14A
:100CF0000EE00021681E05E0235C625C6354225410
:100D0000401E491C8142F7DBAB46A81B401E0990E0
:100D1000002004F80B000B98099AC0F80880C0E97D
:100D2000002B7AE711264FF0000857E72DE9F04F26
:100D300088460446D21D22F0070191B0D1E9000196
:100D4000CDE90A0103F073FA02460B98C00F01D0F7
:100D50002D2007E02068810701D52B2002E020210B
:100D600001EAC000032A099001D0072A05DB0346E7
:100D70004146204600F038FD0BE12078800601D581
:100D8000E06900E00620B8F1650F814606D0B8F1B1
:100D9000660F18D0B8F1670F70D131E00020B9F1BB
:100DA000110F009001DB112301E009F101030AAAF0
:100DB00001A90CA8FFF7E2FEDDE90C70002609F19D
:100DC0000105834647E001204B4600904FF0004765
:100DD0000AAA01A90CA8FFF7D1FEDDE90DB00C9914
:100DE0005D46002610B909F101000D18B9EB0500A8
:100DF00003D4C0F1FF3609F10105A5EB09002BE092
:100E0000B9F1010F01DA4FF001090020B9F1110F1A
:100E10000090484601DD112300E003460AAA01A91B
:100E20000CA8FFF7ABFEDDE90C704D4600268346AB
:100E3000207800070AD4AB4500DA5D4601A8012DF1
:100E400004DD411911F8011C302907D04F4502DAA1
:100E500017F1040F04DA012082460FE06D1EEEE761
:100E6000002F02DCED1B3E4403E0781CA84200DDAD
:100E70007D1CB81B00F1010A4FF0004720780007E5
:100E800003D4AA4501DB4FF0FF3A0021B7F1004F30
:100E90000DF143088DF8431024D002202B23002F9E
:100EA00001DA7F422D230A21021EA0F1010000DC9D
:100EB0005FB197FBF1FC97FBF1F201FB1C7C17463D
:100EC0000CF1300C08F801CDEEE7A8F10100037039
:100ED0002188090501D5452100E06521A0F101081F
:100EE00000F8011C09980FA9A1EB0807FF1D00B12C
:100EF0000120411901EBEA70A1693844081A401E2B
:100F0000A0612078C00602D42046FFF7E9F90998CD
:100F100028B1D4E901219047206A401C2062207842
:100F2000C00622D52046FFF7DBF91EE0002E04DBC9
:100F3000B34502DD01A8805D00E03020D4E9012145
:100F40009047206A401C2062761CAAF101005FEAEB
:100F5000000A0AD100F078FAC0680168405CD4E960
:100F600001219047206A401C2062281EA5F101053E
:100F7000DCDC07E0D4E9012118F8010B9047206A76
:100F8000401C2062381EA7F10107F3DC2046FFF762
:100F9000BDF9032011B041E601694A1C02610878DD
:100FA000704700B58FB0CDE90131002105910549A9
:100FB0007944CDE9031011466846FFF71DFA0FB0DA
:100FC00000BD0000E5FFFFFF0A6802F8010B0A60A0
:100FD0007047D1E900239A4202D2531C0B60107073
:100FE000704710B5436913B1AFF3008001E0FFF71C
:100FF0009EF9012010BD127800F124010A70002230
:101000004A700122EDE711684FF0FF32E9E7000076
:101010002DE9FF5F15468A460446DFF8AC80F844A8
:101020000027D8E900103E46CDE9001010E03AF85C
:1010300016106A4602A800F067FE411C07D021780E
:10104000890603D5E269391891420DD80744761C08
:101050002078800602D5E069B84205DDAE42E6DBC5
:101060003AF816000028E2D1A069C01BA061204612
:10107000FFF736F9D8E90010CDE90010002017E09D
:101080003AF818106A4602A800F03EFEB0F1FF3FA1
:1010900081460BD000250DF1080B05E0D4E90121B4
:1010A0001BF8050090476D1C4D45F7D308F1010072
:1010B000B0428046E4DB206A384420622046FFF7D5
:1010C00025F9BDE8FF9F00009E8400002DE9F04156
:1010D0008046D21D22F007020025D2E90002F52940
:1010E00015A614D0011E72F1000106DA0023D0EB20
:1010F000030063EB020211A608E0D8F800108B078A
:1011000001D50FA602E0490701D50EA6012511461B
:10111000002408F1240704E000F09AF930323A552F
:10112000641C50EA0102F7D12B4632462146404664
:10113000BDE8F041FFF7B4BC000000002D00000046
:101140002B0000002000000030B4002100F1240436
:1011500008E002F00705D208303542EA4372DB08A6
:101160006554491C52EA0305F3D10468002310A218
:10117000250707D5A40600D421B1C46901230DA217
:10118000641EC46130BCFFF78BBC10B50446214619
:101190001068FFF77CFC02462046BDE810400023A3
:1011A000D2E7D21D22F00701D1E90023CCE70000ED
:1011B0000000000030000000F0B40D460188090571
:1011C00002D5214C7C4402E01F4C7C440E340021AB
:1011D00000F1240608E002F00F071209E75D42EA79
:1011E00003721B097754491C52EA0307F3D10278B2
:1011F0000023120704D5702D06D009B10223113443
:101200002246F0BCFFF74CBC01231034F8E770B560
:1012100004460D4621461068FFF739FC0246294670
:101220002046BDE870400023C6E7D21D22F0070328
:10123000D3E90023C0E70368126843F0200303608A
:101240000823C3610023B7E700830000026811444C
:101250001378016018467047D1600549794451619F
:1012600004497944116200211161114600F020BB4C
:10127000EDFFFFFF75020000426842B1016811F8FE
:10128000013B23B1521EC0E90012184670470121EC
:10129000C160881E704742685AB1C368016843B98B
:1012A00083688B4205D0491E521CC0E90012002001
:1012B00070474FF0FF3070472DE9F05F82461546CA
:1012C0008B4600270AF10104B9460078302801D086
:1012D0009DB113E014F8010B0127782803D058289A
:1012E00001D045B10AE00DB1102D07D1002714F847
:1012F000010B102502E0082500E00A250026B04673
:101300000EE005FB080005FB06F101271FFA80F837
:1013100001EB1046B6F5803F00D3B94614F8010B37
:10132000294600F0B7FA0028EBDABBF1000F05D030
:101330000FB1641E00E05446CBF80040B9F1000F35
:1013400006D0FFF797FB02210160C81EBDE8F09FA1
:1013500048EA0640FAE700000FB4002300B589B060
:101360000CA900910B99CB60214B7B440693214B38
:101370007B44079304236FF00042CDE901321E4AFB
:101380007A446B4608920246002008F04FF809B0F4
:101390005DF814FB70B506464FF0FF3015460C465D
:1013A000324686B00091CDE90101694600200490E3
:1013B00004A8FFF7D1FF02460498211825B108B10F
:1013C000084600E020462860049800280DD0002A36
:1013D00002DD0098884208D03246081B6946009416
:1013E000CDE9010404A8FFF7B7FF06B070BD000007
:1013F0000BFFFFFF23FFFFFF570100004FF000022C
:101400000429C0F0128010F0030C3FF497AACCF12D
:10141000040CBCF1020F18BF00F8012BA8BF20F884
:10142000022BA1EB0C01FFF789BA5FEAC17C24BF54
:1014300000F8012B00F8012B48BF00F8012B704782
:1014400000487047944F002000487047B44F002078
:1014500030B5B0F10A024FEA900E71F100034EEA86
:10146000817EB0EB0E0061EB91014FEA101E4EEA57
:10147000017E10EB0E0041EB11114FEA102E4EEAE7
:10148000016E10EB0E0041EB11214FEA104E4EEAB7
:10149000014E10EB0E0041EB1141401841F10001EB
:1014A0004FEAD00040EA41704FEAD10110EB8005CD
:1014B0004FEA810444EA907444EB01046D1944EB53
:1014C0000404521BA3414FF0000348BF0A3200D569
:1014D00030BD401C41F1000130BD10B50446FFF79E
:1014E000C1FA0068005D00F0010010BD2DE9F04F69
:1014F00004460D46D21D22F0070089B0D0E90097BE
:101500004846394602F093FE0246F80F01D02D23DB
:1015100007E02068810701D52B2302E0202101EAA2
:10152000C0038DF820300BB1012000E00020032A19
:10153000824601D0072A04DB2946204600F054F9F0
:101540003FE12078800601D40D2500E0E569C7F36E
:101550000A560D2D49DA00214FEA175B08464FF075
:101560000000002F00F4400007DA00EB80004FF489
:10157000400100EBD07001EA60008115012901DD16
:101580004FF0FF3100224FEA850CBCF1180F06D353
:101590001346ACF118004FF08052C24003E04FF404
:1015A000801323FA0CF30CF10C0CBCF1200F04D3C4
:1015B000ACF1200C09FA0CF001E007FA0CF000295C
:1015C0004FF0004801DD18B90FE00ED140450CD3B3
:1015D00019EB02095F4121B9404502D19F4329EA35
:1015E0000209BBEB175F00D0761C2088000502D5EE
:1015F0007B48784402E07A487844193808AA3023B6
:1016000002F80A30037C0AF10101002E0AF1020AF5
:1016100053546A4602DC4FF0300101E04FF03101D3
:101620004FF001088DF8001002D0A6F2FF3603E05B
:1016300059EA470100D06B4E002D02DC21780907E2
:1016400004D54FF002082E218DF80110C446002168
:101650000BE0C7F303433F01C35C491C6D1E02F856
:101660000830052908F1010801DA002DF1DC00211C
:101670000CE000EB1973491C1B786D1E082902F859
:1016800008304FEA091908F1010801DA002DF0DCF1
:1016900021688B0602D516E0A8F10108E04505DDBA
:1016A00002EB080313F8013C302BF5D0B8F1000F22
:1016B00009DD02EB080313F8013C2E2B03D10907C7
:1016C00001D4A8F10108002D05DD3E2102F8081023
:1016D0006D1E08F10108407C002E02F8080008F198
:1016E000010804DA2D20764202F8080002E02B20DF
:1016F00002F808000A214FF47A70864208F10108C6
:101700000BDB96FBF0F3303302F8083096FBF0F376
:1017100008F1010800FB136601E0642E0CDB642075
:1017200096FBF0F3303302F8083096FBF0F308F143
:10173000010800FB136601E00A2E06DB96FBF1F0C0
:10174000303002F8080008F1010896FBF1F001FBC7
:101750001060303002F80800A16908F1010808EBB8
:10176000050202EB0A00081AA0612078C00602D424
:101770002046FEF7B5FD216A08AE01EB0A002062A3
:1017800004E0D4E9012116F8010B9047BAF1010AEF
:10179000F7D22078C00602D52046FEF7A1FD6E469E
:1017A00009E016F8010B3E280FD0D4E9012190473B
:1017B000206A401C2062B8F10108F2D22046FEF7F0
:1017C000A5FD09B00320BDE8F08F206A28442062FF
:1017D00003E0D4E90121302090476D1EEBD3F8E7F8
:1017E0000D7F000002FCFFFF2DE9F0411F4604467B
:1017F00003260168072A01F4006004DB08B116A57E
:1018000005E016A503E008B115A500E015A521F037
:1018100010002060A069C01EA0610FB1401EA06131
:101820002046FEF75DFD4FB1D4E9012138469047CF
:10183000206A401C2062C01C206206E0206AFAE791
:10184000D4E9012115F8010B9047761EF8D2204605
:10185000FEF75CFDBDE8F0814E414E006E616E000A
:10186000494E4600696E660010B5436913B1AFF387
:10187000008001E0FFF7CCFB012010BD128800F1D1
:10188000240182840022C2840122EDE711684FF016
:10189000FF32E9E73A2800D2303820F02002412A0E
:1018A00001D3A2F13700884201D34FF0FF307047D7
:1018B0002DE9F34F4FF0000A0C4656468DB001203B
:1018C0000C9001F10C000B9062690B98012190477C
:1018D000051E2DD0252D2CD0216A8847C0B1626904
:1018E0000B9801219047216A88470028F7D1626947
:1018F000411E0B98904700E0761CA1690D9888471F
:10190000216A88470028F7D1E1690D988847DBE70D
:10191000A1690D988847A842074601D1761CD3E7F4
:10192000E1690D9888477F1C02D1BAF1000F6FD092
:101930006BE162690B9800273D46394690472A289B
:1019400004D162690B98012190470125DFF8D0820C
:1019500062690B9801219047A0F130010A290AD24F
:101960004745E5DC07EB870100EB4107303FDFD45B
:1019700045F01005ECE7E90601D46FF000476C284C
:101980000AD04C2814D0682815D06A280DD07428A5
:101990001CD07A281AD01DE062690B98012190476B
:1019A0006C2802D045F0040514E045F002050DE076
:1019B00045F020050AE062690B98012190476828EC
:1019C00002D045F0080505E045F4006562690B9812
:1019D00001219047C4E9015765283DD019DC5828FA
:1019E0007AD00CDC452837D004DC252826D04128C5
:1019F0009ED131E046282FD0472899D12CE05B2892
:101A000077D0612828D063287CD0642823D15AE07D
:101A1000F6E06F2848D008DC66281DD067281BD068
:101A2000692821D06E2816D127E0702845D0732868
:101A300068D0752847D078280DD14DE0A1690D9860
:101A40008847252805463FF469AFE1690D98884726
:101A50006D1C3FF46AAFD8E00D9923466A466FF0DB
:101A6000010007F0E3FCC5E045F0400023464FF0DD
:101A700000026060A80736D43EE0E8077FF447AF75
:101A80002068011D21600068290501D506701BE74B
:101A9000290701D5068017E7A90703D5F117C0E983
:101AA000006111E706600FE745F0400023464FF064
:101AB00008026060A80716D41EE040F60E0125EA71
:101AC0000100606016E045F0400023464FF00A0236
:101AD0006060A80707D40FE045F040006060A807E9
:101AE00008D5234610220D996FF00100AFF3008056
:101AF00080E007E0102223460D996FF00100AFF35C
:101B0000008077E04FF0000963284F46C8464B46F7
:101B1000CB4602D05B2806D038E0E80601D401208D
:101B2000A060012732E06269D4F80CB00B98012163
:101B300090475E2807D14FF0010949466269D4F801
:101B40000CB00B989047216939B900210A4603ABC4
:101B500043F82120491C0829FADBD8B3216949B38D
:101B600008F1010862690B98012190475D28F4D1C2
:101B7000B9F1000F09D0002003A951F82020D24369
:101B800041F82020401C0828F7DB03AB206900281F
:101B900020794FEA40701ED05B462246CDF8008087
:101BA000CDE901970D9900286FF0010020DAAFF31D
:101BB00000801FE0C11703AA00EBD1614B1121F097
:101BC0001F0102EB8302411A13680120884003437E
:101BD0001360C7E719E00D99224600286FF0010055
:101BE000009702DAAFF3008004E0FEF7E7FC01E0C3
:101BF000AFF3008000280ADA401C06D10C9820B10F
:101C00004FF0FF300FB0BDE8F08F5046FAE7E9071C
:101C100001D10AF1010A064400200C9054E60000AC
:101C2000CCCCCC0C2DE9F047814616468AB035481D
:101C300078440DC88DE80D0032487844801C03AC10
:101C40000DC884E80D0041F69B300844372190FB15
:101C5000F1F290FBF1F5A5F1800501FB12041B3CAC
:101C600002D56442012000E00020DFF898A0804601
:101C70000027FA44AAF1BE0A0EE0E0070AD0324675
:101C8000684607EB470101230AEB810101F03EF8AA
:101C90008DE8070064107F1C002CEED1194F7F44A3
:101CA000AE3F19E0E80715D007EB04100DF1180A54
:101CB00090E80E008AE80E00C068F04201D1981941
:101CC00008903246012306A903A801F01FF803ABD0
:101CD00083E807006D10641C002DE3D14FF0010371
:101CE00032466946B8F1000F03A802D000F0E4FFC5
:101CF00001E001F00BF8C9E90001C9F808200AB0B9
:101D0000BDE8F0876079000070B516460C460546C0
:101D1000FEF7A8FE036893F80101012806D0FF2C06
:101D20000FD8185D68B101202C7070BDD3F8070181
:101D30003246214603F2071303442846BDE87040AB
:101D400018474FF0FF3070BD7546FFF779FBAE4680
:101D500005006946534620F00700854618B020B5B7
:101D6000FEF776FABDE820404FF000064FF000077E
:101D70004FF000084FF0000B21F00701AC46ACE833
:101D8000C009ACE8C009ACE8C009ACE8C0098D46A0
:101D9000704700002DE9FF4F06468BB00878FF28FA
:101DA00006D0491C2D2805D000244FF0000908E07A
:101DB00000200CE00124F8E709EB8903491C00EB43
:101DC00043090878FF28F7D114B1C9F10000814612
:101DD000107800252C46AA4629462D2801D02B280C
:101DE00004D1521C2D2813D0002082468B46107837
:101DF000FF280FD04FF0000C0A21521CA5FB0178E0
:101E000004FB018105FB0C11C5194BEB0104EEE746
:101E10000120EAE7002108464FF00000BAF1000F68
:101E200002D000EB80004008C0F38157012F01DD94
:101E30004FF0FF370E9955EA040009EB01080BD06B
:101E40004FF0020918F5FA7F16DA4FEACA70002F30
:101E5000706008DD012007E04FEACA70C6E900B0F3
:101E60000FB0BDE8F08F00203060FEF703FEC0F831
:101E700000901821084616E0B8F5FA7F18DD002F0B
:101E800002DAF748784401E0F6487844D0E90010D7
:101E9000C6E9001040EACA707060FEF7EBFDC0F8BA
:101EA0000090142108460FB0BDE8F04F07F057BA74
:101EB000002108464FF00000B8F10001099002DA55
:101EC000C7F1000200E03A4601DAC8F1000106A8B5
:101ED000FFF7A8FE06AB93E8070003AB83E8070013
:101EE00044F23E005BEA04010090584604D144F2FB
:101EF0001E012C465D460091210C0904014306D1C8
:101F00000099240444EA15442D041039009104F08A
:101F10007F41014306D10099240244EA15642D0251
:101F20000839009104F07041014306D10099240161
:101F300044EA15742D01091F009104F0404101434A
:101F400006D10099A40044EA9574AD00891E009161
:101F500004F00041084304D100986D196441401E0B
:101F600000904FF001033A466846B8F1000FCDE902
:101F7000014503A902DD00F0DEFE01E000F0B1FE44
:101F8000BAF1000F04460D4601D084F00044002150
:101F900008464FF00000099940F2FF77484010F0E2
:101FA0000C0F07D124F00040284303D0C4F30A509B
:101FB000B84212D1FEF75EFDC0F80090C4F30A509B
:101FC000B8420AD1A8487844D0E90010C6E9001008
:101FD00004F000410843706042E7C6E900543FE75F
:101FE0002DE9FF4F1F464FF0000A4FF0FF384546DE
:101FF00091B0D7E90146CDF83CA0FFF725FAC068BB
:102000000168405C1090B96912986D1C8847396A64
:10201000814688470028F6D1B9F1FF3F0AD0002E4B
:1020200024F4D06411DDB9F12B0F08D0B9F12D0FD4
:102030000BD102E0404615B013E744F48064B9695F
:1020400012986D1C8847761E8146600504A901D54B
:102050002D2000E02B20002E01F1010B0DF13008A6
:102060008DF810003FDDB9F1690F08D0B9F1490FC3
:1020700005D0B9F16E0F02D0B9F14E0F1CD13B461D
:1020800001A8009580E85002DDE912126FF002000D
:1020900007F0D0F9C11CCED10EE0B96912986D1CC1
:1020A000884781461398761E44F4007405600F98A3
:1020B000401C002E0F9016DDB9F1300FEDD0B9F1B4
:1020C000780F02D0B9F1580F0DD10F9801280AD11D
:1020D0003B46CDE90054DDE91212001F029607F0DD
:1020E000A7F9C11CA7D1109989453ED144F08004BD
:1020F00006E01399681CAAF1010A44F40074086010
:10210000B9696D1C1298761E884730288146F0D038
:102110002BE01099894505D1200603D4761E44F0A2
:10212000800418E0484602F01EF908B3761E0DF14F
:1021300023018B4544F4007408D2A9F130000BF858
:10214000010B200607D5AAF1010003E0200602D406
:102150000AF101008246A00502D51399681C0860A7
:10216000B96912986D1C88478146002ED1DC53E076
:10217000002E51DDB9F1650F02D0B9F1450F4BD1F9
:10218000A00549D5B9696D1C1298761E24F44074D7
:102190008847002E81460CDD2B2804D0B9F12D0F85
:1021A00007D144F48074B96912986D1C8847761E73
:1021B0008146E00501D52D2100E02B2108F8011B07
:1021C000CDF8008021E0761E0DF13901884544F4F8
:1021D00000740CD2A9F1300010F0FF0088F8000064
:1021E00002D10099884509D908F1010806E0E00507
:1021F00001D51E4801E042F20F708246B96912987B
:102200006D1C8847814613980560002E04DD484602
:1022100002F0A9F80028D6D1F96912988847FF2062
:1022200053468BF8000088F8000000200A900B90BD
:1022300004AA0CA90AA8FFF7ADFDA00502D46FF00F
:102240000100F8E614F0240F12D0E0071CD1386822
:10225000DDE90A12031D3B600068C0E9001213E0CB
:10226000AC7700009E77000062760000F1D8FFFF97
:102270000AA9684602F006F8E00705D13868009A16
:10228000011D3960006802602846D4E610B5044696
:10229000AFF300802046BDE81040FDF7C4BF10B585
:1022A000FEF7E8FB006810BD10B50446FEF7E2FB40
:1022B000046010BD2DE9FF4F1F464FF03C0987B069
:1022C0004FF00042DDE9141001F10108DDF858A0DB
:1022D00002EA4050039000200590834605460446DC
:1022E0000490B969461E08988847AAF1010A02902D
:1022F000BAF1000F3BDD02982E2815D01021FFF710
:10230000C9FA00282EDB4FF0010B0599014317D0C5
:10231000B9F1000F0BDB4A46C11700F0FBF905438A
:102320000C43A9F1040905E0012004900BE008B179
:1023300045F0010501200590049820B9361D02E002
:10234000049800B1361FB969089808F10108884758
:10235000BBF1000FAAF1010A0290C9D00999C1F896
:102360000080C5E70298702808D0502806D0F96987
:1023700008988847BBF1000F14D04FE0002002906E
:102380000120BBF1000F049009D0B969089808F149
:1023900001088847AAF10109B9F1000F07DCF969C2
:1023A000089888476FF001000BB0BDE8F08F2B282C
:1023B00004D02D280CD14FF0FF300490B969089853
:1023C00008F101088847A9F10109B9F1000FE6DD1C
:1023D000411CE4D00A21FFF75DFA0028DFDB0299F7
:1023E00008F1010801EB810100EB41000290B9699D
:1023F000089888470A21FFF74DFA099AA9F10109BF
:10240000B9F1000FC2F8008001DD0028E7DAF969B0
:10241000089888470499029800FB016655EA040071
:1024200004D004F04041090002D006E0039898E08F
:10243000A40044EA9574AD00B61E04F00041080003
:1024400002D16D196441761E159810F0240F03D047
:102450004FF00B095C4803E04FF028096FF07D0056
:102460008246564507DAAAEB06018944B9F1410FC5
:1024700001DD4FF0410901200021A9F1010200F026
:1024800049F9024628400B462140084301D001216A
:1024900000E00021501E029143F1FF31284021400D
:1024A000084301D0012000E000200299834651EA50
:1024B0000B014FD0002108464FF00000039900F4B3
:1024C000400039B100EB80004FF4400100EBD070C8
:1024D00001EA60008015012802DD4FF0FF3000E0C6
:1024E00013D0401C36D0029860B3BBF1000F0CD162
:1024F0004A460120002100F00DF928402140084300
:1025000001D0012000E00020E0B101204A46002176
:1025100000F000F9034640190A4661412D1A8C412A
:1025200011D3B9F1400F09DD159810F0240F02D036
:10253000AAF1340603E0AAF1170600E0761C002594
:102540004FF0004406E05B1E42F1FF3220EA030533
:1025500021EA0204CAF10100B04206DA1B490398DD
:1025600008430190002000900EE0039AC4F3D321A9
:10257000E80A0A43164940EA44500A433146CDE985
:102580000002684601F0E4FE159810F0240F0BD00D
:102590001598C00715D13868DDE90012031D3B60AE
:1025A0000068C0E900120CE002A8694601F06AFE6A
:1025B0001598C00705D13868029A011D3960006876
:1025C00002604046F0E6000002FCFFFF0000F07FE2
:1025D0000000F03F2DE9FF4F92461D4685B04FF0B9
:1025E0000041DDE9124BDDE914727F1E01EA4B5018
:1025F000414940F0FF4940EA0108002122F0200053
:102600004928049102D04E2828D04CE03BA0012656
:1026100007C88DE80700A9690698641C88477F1ED3
:10262000014606D41DF8060018B121F020018142B0
:102630000BD0E96906988847032E34D0082E32D093
:102640006FF0010009B0BDE8F08F761C032E01D0B9
:10265000082EE0D1601CCAF80000DCE7A9690698E2
:10266000641C88477F1E2AD420F02000412826D1F0
:10267000A9690698641C88477F1E20D420F020009A
:102680004E281CD1A9690698641C88477F1E48F40F
:10269000002849F48009CAF8004001D4282806D04F
:1026A000E969069888475FEACB7012D022E0A969F1
:1026B0000698641C88477F1E01D4002803DAE96964
:1026C00006988847BCE72928F1D1641CCAF8004065
:1026D000E9E71BF0240F07D028680499031D2B603D
:1026E0000068C0E9001805E02868021D2A6000683B
:1026F000C0F800902046A5E70000F07F494E46490B
:102700004E4954590000000001491820ABBEFEE7B5
:1027100026000200B2F120030AD5C2F1200301FA1B
:1027200002F120FA03F300FA02F041EA03017047D4
:1027300000FA03F14FF00000704770475FEA400C69
:1027400008BF91F0000F4FEA8C234FEAC12243EA01
:1027500051514FEA1C5018BF00F5F0404FEA3000CD
:1027600018BF41F000415FEA6C5C00F02980BCF1C9
:10277000FF3F08BF40F080407047130C06BF1204B3
:102780004FF0100C4FF0000C130E04BF12020CF1AE
:10279000080C130F04BF12010CF1040C930F04BFBB
:1027A00092000CF1020CD30F04BF52000CF1010C8B
:1027B00011464FF00002A0F11F00A0EB0C00704783
:1027C00011F0004F08BF704731F000413FF4D5AF22
:1027D0000B0C06BF09044FF0100C4FF0000C0B0E51
:1027E00004BF09020CF1080C0B0F04BF09010CF126
:1027F000040C8B0F04BF89000CF1020CCB0F04BF3B
:1028000049000CF1010CCCF12003A0EB0C0022FAE2
:1028100003F302FA0CF241EA030100F101007047F0
:1028200020F07F4C80EA030023F07F47ACEB0703E6
:1028300003F57C5300F0004003F1FF032DE98049CC
:102840004FEA154B09B44FEA144325EA0B4E24EA2C
:1028500003480FF2042606EB132749083E785FEA87
:10286000320203FB0667C7F5000707FB06F64FEACF
:1028700054374FEAD64606F1020607FB066CCCF148
:10288000005C4FEA1C472CEA074C07FB06F40CFBE4
:1028900006F504EB15464FEA961634BF00204FF0BC
:1028A00000404FEAD13706FB07FC4FEA1C4C0CFBFB
:1028B0000BF7D21B03FB0CF761EB07010CFB0EF7C8
:1028C000B0EB074072EB17420CFB08F734BFA2EBEA
:1028D0000742B2EB074261EB17414FEA0C444FEA63
:1028E000910706FB07FC4FEA1C4C0CFB0BF7B0EB07
:1028F000C74072EB573203FB0CF734BFA2EBC74261
:10290000B2EBC74261EB57310CFB0EF7B0EBC700DF
:1029100072EB57720CFB08F734BFA2EBC702B2EBA5
:10292000C70261EB5771039F4FEA816141EA92113F
:1029300004EBCC044FEAD1374FEA826206FB07FC76
:1029400042EA90124FEA80604FEA1C4C0CFB0BF7F6
:10295000D21B03FB0CF761EB07010CFB0EF7B0EB8E
:10296000074072EB17420CFB08F734BFA2EB07429B
:10297000B2EB074261EB17414FEA8C554FEA9107E2
:1029800004EB9C2406FB07FC4FEA1C4C0CFB0BF7EA
:10299000B0EBC74072EB573203FB0CF734BFA2EB2E
:1029A000C742B2EBC74261EB57310CFB0EF7B0EBFD
:1029B000C70072EB57720CFB08F734BFA2EBC702DB
:1029C000B2EBC70261EB577115EB4C254FEA816101
:1029D00041EA92114FEA82624FEAD13742EA9012FD
:1029E00006FB07FC44F100044FEA80604FEA1C4CF0
:1029F0000CFB0BF7D21B03FB0CF761EB07010CFB85
:102A00000EF7B0EB074072EB17420CFB08F734BF30
:102A1000A2EB0742B2EB074261EB174115EB1C1525
:102A20004FEA813141EA92414FEA823242EA9042D2
:102A30004FEA80304FEA0C7644F1000448EA034341
:102A40004EEA0B484FF0000EB2EB080C71EB030797
:102A500024BF624639464EEB0E0E4FF0000B0018B5
:102A6000524149414BEB0B0BB2EB080C71EB0307E6
:102A70007BF1000B24BF624639464EEB0E0E4FF041
:102A8000000B0018524149414BEB0B0BB2EB080C09
:102A900071EB03077BF1000B24BF624639464EEB16
:102AA0000E0E51EA020718BF46F0010616EB0E762D
:102AB00055F1000254F1000103D5BDE88901BDE8DC
:102AC0000088BDE88901BDE80048B619524141EBD4
:102AD0000101A3F10103704780807F7E7D7C7B7ABA
:102AE0007978777676757473727171706F6E6E6DBA
:102AF0006C6C6B6A6A696868676666656464636360
:102B000062616160605F5F5E5E5D5D5C5C5B5B5AE5
:102B10005A59595858575756565555555454535352
:102B200052525251515050504F4F4F4E4E4D4D4DAD
:102B30004C4C4C4B4B4B4A4A4A49494948484847F8
:102B40004747474646464545454444444443434336
:102B5000434242424241414146EA0646A3F5705390
:102B60004FEA164646EA42564FEAD22242EA41521C
:102B700010B54FEAD121A3F1010300F02FF820F0A6
:102B8000004000F1020C00F0004701EB005011463C
:102B9000BCF5006F40EA070000D210BDBAF1000F8B
:102BA0000AD01CB503B44FF004004FF004014FF0FD
:102BB00000000FBCBDE810404FF00001BBF1010F59
:102BC000B9BF04484FF0FF310348002140EA070035
:102BD00010BD00BFFFFFEF7F0000F07F002B9C4681
:102BE00030D477002BD01CB54FEA370703B44FF031
:102BF00010004FF01001BAF1000F06D0BCF1000F29
:102C0000DCBF40F0080040F008014FF000000FBCAE
:102C1000BDE810400BF1010BBBF1010F08BF5FEAEB
:102C2000170722BF12F1010211F101014FF000411B
:102C300043F1000300F0004043EA00007047F9D37D
:102C40005708D0E746EA064613F1400F4FEA16460A
:102C50001FDD13F1200FDFBF16430A46002120338A
:102C60005B42BED0C3F1200746EA064602FA07F7E8
:102C70004FEA164646EA0706C3F1200722FA03F296
:102C800001FA07F721FA03F14FF0000342EA0702C5
:102C9000A7E746EA020646EA06464FEA164646EA2D
:102CA0000106BCBF46EA0646360C4FF000034FF063
:102CB00000024FF0000194E72DE9804C9A469346BC
:102CC00070B491E8380007C831EA400C48BF34EAD4
:102CD000430C03D5FFF7A4FDFFF780FFF0BCBDE870
:102CE000008C2DE9804C9A46934670B491E83800E8
:102CF00007C831EA400C48BF34EA430C03D5FFF75C
:102D00008FFDFFF729FFF0BCBDE8008C2DE9804C5A
:102D10009A46934670B491E8380007C810F0804F87
:102D200008BF13F0804F03D100F01AF8FFF756FFE9
:102D3000F0BCBDE8008C2DE9804C9A46934670B4F7
:102D400091E8380007C810F0804F08BF13F0804F9B
:102D500003D100F005F8FFF7FFFEF0BCBDE8008CE2
:102D600020F07F4780EA030023F07F4C07EB0C0341
:102D7000A3F57C5300F00040A3F1FE0392F0000F96
:102D800000F0B38095F0000F00F077802DE9014945
:102D90004FEA11404FEA144621EA004800FB06FCC6
:102DA00024EA064708FB06F607FB08F800FB07F7CE
:102DB00018EB06484CEB164C4FEA124B18EB074841
:102DC0004FEA15464CEB174022EA0B4E0BFB06FC74
:102DD00025EA06470EFB06F607FB0EFE0BFB07F780
:102DE0001EEB064E4CEB164C4FF000061EEB074E4A
:102DF0004CEB174B18EB0B0840F1000018EB0E0BD7
:102E000058EB000840F100008F1A4FF000013CBF62
:102E1000C943661B14BFB5EB040C00213CBFC9437A
:102E2000F61B4FEA17444EEA8E0E27EA04454FEA96
:102E30001C4704FB07622CEA074C05FB07F70CFB59
:102E400005F604FB0CFC16EB074642EB174216EBAB
:102E50000C4642EB1C421BEB060658EB02024141BA
:102E600046EA9E0601D5BDE80189B619524141EBFB
:102E70000101A3F10103BDE801894FEA14454FEABE
:102E8000114724EA054621EA074C05FB07F406FB37
:102E900007F70CFB06F105FB0CFC11EB074144EBBB
:102EA00017444FEA124711EB0C4144EB1C4422EA51
:102EB000074C05FB07F206FB07F70CFB06F605FBC4
:102EC0000CFC16EB074642EB174216EB0C4642EBA6
:102ED0001C456A1854F1000148BF7047B6195241A9
:102EE00041EB0101A3F10103704795F0000F37D0CA
:102EF0004FEA11424FEA144721EA024624EA074CFE
:102F000002FB07F106FB07F70CFB06F402FB0CFCC7
:102F100014EB074441EB17414FEA154714EB0C44FF
:102F200041EB1C4125EA074C02FB07F506FB07F7BE
:102F30000CFB06F602FB0CFC16EB074645EB1745AF
:102F400016EB0C4645EB1C42121951F1000148BF2B
:102F50007047B619524141EB0101A3F101037047DB
:102F60004FEA14454FEA114724EA054621EA074C87
:102F700005FB07F106FB07F70CFB06F24FF0000616
:102F800005FB0CFC12EB074241EB174112EB0C4224
:102F900051EB1C4148BF7047921841EB0101A3F16E
:102FA0000103704708B501460020009003480090D7
:102FB0000098084400900098008808BD006C00400C
:102FC00008B500220092044A0092009A024400923E
:102FD000009A116008BD0000006C004010B5024668
:102FE0000B46002100BF04E052F82100034C206092
:102FF000491C9942F8D30148006810BD00300240D6
:1030000001200149886070470030024010B54FF43C
:10301000000000F089F8C8B14FF4801000F06AF8A1
:1030200000212B4800F074F800212A4800F06FFBC3
:103030000121284800F0A0FB002027490860401E1D
:103040002649086000202649086010BD4FF4001092
:1030500000F06AF8002839D044F620644FF480105C
:1030600000F048F800211A4800F052F800211948F1
:1030700000F04DFB00E0641E1A49164800F088FB82
:1030800008B9002CF7D10121124800F075FB00208F
:103090001149086034B9401E1049086000201049E9
:1030A0000860D2E7104800881049098808440E4992
:1030B0000880084600880E490988884205DB0120FF
:1030C0000649086000200649086000BF00BFBCE751
:1030D0006C00024000540040580000204C000020CA
:1030E000480000200400001054000020560000207A
:1030F0005200002000F0805111B10349086001E046
:103100000249486070470000040402400000024089
:1031100021B1026842F00102026004E002684FF649
:10312000FE731A400260704701460020002201F041
:10313000805313B1054B1A6801E0054B1A6802EA87
:1031400001030BB1012000E00020704700040240A1
:10315000000002401AB103680B43036002E00368F9
:103160008B430360704710B50022026847F6F07386
:103170009A430C6A8B6823430C6923434C692343AD
:103180008C692343CC6923434C6A23438C6A2343D1
:103190001A430260CB6843600B6883604B68C3606E
:1031A00010BD10B50021012003F018FC10BD10B5B2
:1031B0000121022003F012FC10BD10B502210420F1
:1031C00003F00CFC10BD10B50321082003F006FC31
:1031D00010BD000010B5102000F028F828B1012023
:1031E00002490870102000F01BF810BD00000020FC
:1031F00010B5202000F01AF828B1012007494870C6
:10320000202000F00DF8402000F010F828B1012037
:1032100002498870402000F003F810BD0000002033
:103220000149086070470000140401400146002075
:103230000022074B1B6803EA0102054B14331B688D
:103240000B4013B10AB1012000E0002070470000DC
:1032500000040140002123498279002A3AD00A461D
:10326000126803689A430B461A600A1D12680368C5
:103270009A430B1D1A60027911440A6803681A43C5
:103280000A60184A0832126803689A43154B0833DB
:103290001A601A1D126803689A43124B0C331A60A5
:1032A0004279102A0ED11A1F126803681A430D4B77
:1032B00008331A601A1D126803681A43094B0C334D
:1032C0001A600DE00749427911440A6803681A43FD
:1032D0000A6005E0027911440A6803689A430A60AB
:1032E00070470000000401400021016001710C21C1
:1032F000417100218171704730B5044604254FF4B7
:10330000302000F085F80546042D17D10C480069DF
:1033100040F002000A49086108464461006940F033
:10332000400008614FF4302000F072F80546044870
:10333000006941F6FD71084001490861284630BD29
:103340000020024004200B49C96801F0010109B1C5
:1033500001200EE00749C96801F0040109B102200B
:1033600007E00449C96801F0100109B1032000E039
:1033700004207047002002400348006940F08000AC
:1033800001490861704700000020024078B50646F8
:103390000C46042500200090E80200F039F80546AC
:1033A000042D24D11348006940F00100114908613F
:1033B0003480E80200F02CF80546042D10D1B01C32
:1033C0000090200C00990880E80200F021F80546E2
:1033D0000848006941F6FE7108400649086106E0A8
:1033E0000448006941F6FE71084002490861284618
:1033F00078BD0000002002400248034948600348AD
:10340000486070472301674500200240AB89EFCD3B
:1034100000B502460423FFF795FF034603E0FFF7DC
:1034200091FF0346521E012B01D1002AF7D102B9A8
:103430000523184600BD000030B500228B071C0F85
:103440000F2303FA04F20B4B8C1053F824309343F0
:10345000084C8D1044F8253023468C1053F8243046
:103460008C07240F00FA04F42343024C8D1044F817
:10347000253030BD080001402DE9F041024600250D
:103480000026002000230024002791F803C00CF040
:103490000F0591F803C00CF0100CBCF1000F03D025
:1034A00091F802C04CEA050591F800C0BCF1000F8C
:1034B00031D0146800202BE04FF0010C0CFA00F31F
:1034C000B1F800C00CEA03069E4220D183004FF001
:1034D0000F0C0CFA03F7BC4305FA03FC4CEA040496
:1034E00091F803C0BCF1280F06D14FF0010C0CFA83
:1034F00000FCC2F814C00AE091F803C0BCF1480F08
:1035000005D14FF0010C0CFA00FCC2F810C0401CB1
:103510000828D1D31460B1F800C0BCF1FF0F34DD2E
:10352000546800202EE000F1080C4FF0010808FA62
:103530000CF3B1F800C00CEA03069E4221D18300CF
:103540004FF00F0C0CFA03F7BC4305FA03FC4CEAEE
:10355000040491F803C0BCF1280F05D100F1080C58
:1035600008FA0CF8C2F8148091F803C0BCF1480FB7
:1035700007D100F1080C4FF0010808FA0CF8C2F866
:103580001080401C0828CED35460BDE8F08102466C
:10359000002093680B400BB1012000E00020704731
:1035A000416170470161704710B54FF00121154826
:1035B00000F00BF920B14FF00121124800F095F80E
:1035C0001149104800F001F918B10F490D4800F0F9
:1035D0008CF80E490B4800F0F8F818B10B4909486F
:1035E00000F083F80A49074800F0EFF818B10849DD
:1035F000044800F07AF807480068401C0549086054
:1036000010BD000000540040000200010004000151
:10361000000800014000002002480068401C0149E9
:10362000086070473C00002010B54FF0012115489C
:1036300000F0CBF820B14FF00121124800F055F80E
:103640001149104800F0C1F818B10F490D4800F0B9
:103650004CF80E490B4800F0B8F818B10B4909486E
:1036600000F043F80A49074800F0AFF818B10849DC
:10367000044800F03AF807480068401C0549086013
:1036800010BD0000005800400002000100040001CD
:10369000000800013400002002480068401C014975
:1036A000086070473000002021B1028842F4806237
:1036B000028004E002884FF6FF331A400280704710
:1036C00070B502460024002500230020958A138B44
:1036D0001B0445EA030626F07F4404EA01068E42F5
:1036E00001D1012000E0002070BD002221F07F42C6
:1036F000D3438382704721B1028842F001020280E5
:1037000004E002884FF6FE731A400280704721B130
:10371000828842F40062828004E082884FF2FF7364
:103720001A4082807047000010B504460B4884425E
:1037300009D10121480500F057F900214FF400108C
:1037400000F052F908E00121880500F04DF9002150
:103750004FF4800000F048F910BD00000054004014
:1037600021B1028842F48072028004E002884FF6A0
:10377000FF631A400280704721B1028842F4007250
:10378000028004E002884FF6FF531A40028070471F
:103790000CB50246002000230193009300920B0F0A
:1037A000019321F07F41019B1BB1009B14330093D7
:1037B00003E0090C009B18330093009B1B680B402F
:1037C0000BB1012000E000200CBD30B50246002006
:1037D0000023948801F0E06504EA154321F07F415D
:1037E000948A0C4014B10BB1012000E0002030BDE0
:1037F0001AB183880B43838002E083888B438380E4
:10380000704700002DE9F04385B004460D460026C0
:10381000B1460427DFF8CC80A6884FF6C07006407A
:10382000684600F001F9DDF808802F48B8FBF0F099
:103830001FFA80F946EA0906A68020884FF6FE7135
:103840000840208000262949286888420CD828682A
:103850004000B8FBF0F087B2042F00DA04273E43A3
:1038600009F10100208427E0E8884BF6FF718842C7
:1038700006D1286800EB4000B8FBF0F087B209E001
:10388000286800EBC00101EB0010B8FBF0F087B234
:1038900047F48047C7F30B0008B947F0010747F426
:1038A000004006434FF4967009FB00F04FF47A7124
:1038B00090FBF1F0401C2084A683208840F001009A
:1038C000208026884FF6F5300640A888698908438D
:1038D00006432680A88929890843208105B0BDE8D0
:1038E000F083000000127A0040420F00A086010021
:1038F0000146088AC0B2704712B141F0010102E0EE
:103900004FF6FE731940018270470182704741F201
:1039100088310160002181804BF6FF71C180002158
:10392000018141814FF480418181704770B5002150
:1039300000230F22C47804B3154C246804F4E06417
:10394000C4F5E064210AC1F10403CA40447804FAD2
:1039500003F184781440214309010E4C0678A155E7
:10396000047804F01F050124AC4005786D11AD000A
:1039700005F1E025C5F8004109E0047804F01F05D1
:103980000124AC40044D0678761145F8264070BD00
:103990000CED00E000E400E080E100E00149086295
:1039A0007047000000000E4229B1064A52690243E6
:1039B000044B5A6104E0034A52698243014B5A6145
:1039C000704700000010024029B1064AD269024344
:1039D000044BDA6104E0034AD2698243014BDA61A5
:1039E000704700000010024029B1064A12690243E4
:1039F000044B1A6104E0034A12698243014B1A61C5
:103A0000704700000010024029B1064A9269024343
:103A1000044B9A6104E0034A92698243014B9A6124
:103A2000704700000010024030B500210022002441
:103A300000232D4D6D6805F00C0121B1042905D03E
:103A4000082923D105E0294D056022E0274D0560B6
:103A50001FE0254D6D6805F47012234D6D6805F467
:103A60008034022505EB92421CB9214D5543056077
:103A70000BE01D4D6D6805F400351DB11C4D55431F
:103A8000056002E0194D5543056002E0174D0560E1
:103A900000BF00BF144D6D6805F0F0010909154D18
:103AA0006B5C0568DD4045600F4D6D6805F4E061B5
:103AB000090A104D6B5C4568DD4085600A4D6D68F4
:103AC00005F46051C90A0B4D6B5C4568DD40C5606B
:103AD000054D6D6805F44041890B074D6B5CC56869
:103AE000B5FBF3F5056130BD0010024000127A000D
:103AF00000093D00D4000020E400002010B501467C
:103B00000022002300204A11012A02D1094C236817
:103B100006E0022A02D1074C236A01E0054C636AE1
:103B200001F01F02012494401C400CB1012000E070
:103B3000002010BD0010024000210B4A11700A4AFB
:103B4000203A82F82010012802D0042808D103E08E
:103B50000121054A117004E00521034A117000E0BB
:103B600000BF00BF704700002010024001490860FC
:103B7000704700008004424201490860704700001D
:103B80003C0442420249096A0143014A11627047FA
:103B9000001002400348008840F0100001490880EE
:103BA0007047000004280040034800884FF6EF717A
:103BB000084001490880704704280040002103485C
:103BC0000188001F008841EA004070471C2800401F
:103BD00000B50246FFF7DEFF100C03490880091DFF
:103BE0000A80FFF7E1FF00BD1828004000B502463B
:103BF000FFF7D0FFC2F3034003490880091D0A8084
:103C0000FFF7D2FF00BD00000828004000BF0348B6
:103C1000008800F020000028F9D0704704280040F8
:103C2000074800884FF6F77108400549088000BF33
:103C30000348008800F008000028F9D07047000011
:103C40000428004010B500F001F810BD0CB50020AC
:103C5000019000903348006840F48030314908609A
:103C600000BF3048006800F4003000900198401C0C
:103C70000190009818B90198B0F5A06FF1D12948CA
:103C8000006800F4003010B10120009001E0002035
:103C900000900098012843D12348006840F01000AC
:103CA000214908600846006820F0030008600846C3
:103CB000006840F0020008601A48406819494860EE
:103CC0000846406848600846406840F480604860A4
:103CD0000846406820F47C1048600846406840F47C
:103CE000E81048600846006840F08070086000BF37
:103CF0000C48006800F000700028F9D009484068BE
:103D000020F00300074948600846406840F0020080
:103D1000486000BF0348406800F00C000828F9D153
:103D20000CBD0000001002400020024000B504F06D
:103D30006FFA00BD10B51348006840F0010011494A
:103D4000086008464068104908400E494860084627
:103D500000680E4908400B4908600846006820F4D6
:103D6000802008600846406820F4FE0048604FF458
:103D70001F008860FFF766FF4FF00060044908608D
:103D800010BD0000001002400000FFF8FFFFF6FE2B
:103D900008ED00E010B51021514800F0B9F80028F6
:103DA00071D010214E4800F0A1F84E48007810B9AB
:103DB00001F044FC10BD4B48C079012804D0022812
:103DC00034D003287DD150E04648C07850B94549E9
:103DD000087903F0B1F801204249C870462001F08B
:103DE00015FC22E03F48C078012815D13D480079F4
:103DF0003D49085C08B1012000E000203949887085
:103E00000879002101F037FC02203649C8704FF4D0
:103E1000CD7001F0FBFB08E0002032490870012062
:103E200048700020C87101F009FC55E02D48C078A9
:103E300078B92C49087903F07FF801202949C87026
:103E4000497909B1402100E00A21084601F0DEFB72
:103E50000AE0012023498870002008700120487082
:103E60000020C87101F0EAFB36E01E48C07858B95E
:103E70001C49087903F060F801201A49C87009202C
:103E800001F0C4FB1CE028E01648C07801280CD1E2
:103E90001449087903F03CF8124988710220C8706F
:103EA000372001F0B3FB0BE00BE001200D498870D7
:103EB00000200870012048700020C87101F0BEFB8E
:103EC0000AE000200749887008700120487000202F
:103ED000C87101F0B3FB00BF00BF00BF6AE700007C
:103EE000000800400300002000000020CA430282B6
:103EF000704721B1028842F00102028004E002888A
:103F00004FF6FE731A40028070470146888C704756
:103F100030B50246002000230024158A05EA01037B
:103F2000958905EA010413B10CB1012000E00020DD
:103F300030BD1AB183890B43838102E083898B43AF
:103F400083817047A0F8401070470000002202886B
:103F50001D4B98420ED01D4B98420BD0B0F1804FB4
:103F600008D01B4B984205D01A4B984202D01A4BEE
:103F7000984204D14FF68F731A404B881A43174B5F
:103F8000984207D0164B984204D04FF6FF431A4090
:103F9000CB881A4302808B8883850B8803850A4B64
:103FA00098420BD0094B984208D00E4B984205D04E
:103FB0000D4B984202D00D4B984201D10B7A0386EB
:103FC0000123838270470000002C0140003401402F
:103FD0000004004000080040000C004000100040B9
:103FE00000140040004001400044014000480140EE
:103FF0004FF6FF71818000210180C18041800172F4
:104000007047000010B540F22551164800F03EF808
:1040100030B1144800F0F6F8C4B2204604F082FB38
:1040200040F227710F4800F031F8C8B10E4800681F
:104030000E49096888420DD00D480B4A1268815C10
:10404000084800F0E4F808480068401CC0B206497F
:10405000086005E0002240F22771024800F040F8B5
:1040600010BD00000038014028000020240000207E
:10407000B001002021B1828942F40052828104E023
:1040800082894DF6FF731A408281704770B50246EF
:10409000002400230025002040F66A16B14200D11A
:1040A00000BFC1F3421501F01F03012606FA03F316
:1040B000012D02D19689334006E0022D02D1168AE5
:1040C000334001E0968A33400C12012606FA04F4CC
:1040D0001688344013B10CB1012000E0002070BDFF
:1040E000F0B50346002400260025002040F66A179C
:1040F000B94200D100BF1846C1F3421401F01F06B7
:10410000012707FA06F5012C01D10C3004E0022C3E
:1041100001D1103000E014301AB107682F43076056
:1041200002E00768AF430760F0BD00002DE9F047EB
:1041300086B005460E460024A24600BFA1460027D1
:10414000B08900B100BF2F462C8A4CF6FF700440A6
:10415000F08804432C82AC894EF6F3100440B088FA
:1041600031890843718908430443AC81AC8A4FF616
:10417000FF400440B0890443AC8201A8FFF754FC1F
:104180001F48874202D1DDF810A001E0DDF80CA045
:10419000A88900F4004040B10AEBCA0000EB0A1005
:1041A00031684900B0FBF1F807E00AEBCA0000EB08
:1041B0000A1031688900B0FBF1F86420B8FBF0F018
:1041C00004012009642101FB1089A88900F4004042
:1041D00040B1322000EBC900B0FBF1F000F0070065
:1041E000044308E0322000EB09106421B0FBF1F039
:1041F00000F00F0004432C8106B0BDE8F0870000FA
:104200000038014001468888C0F308007047C1F3B8
:104210000802828070474FF41651016000218180AE
:10422000C18001810C2141810021818170474900B9
:1042300050EAC12018BF04204A0D18BF40F0010009
:1042400040F2FF72B2EB515F08BF40F0020001285C
:1042500008BF05207047014621F00040C0F1FF4033
:10426000C00F704740F2013200204FF0E04105F0EE
:10427000AFB80000024A0020110705F0A9B80000FD
:1042800001FDFFFF10B50446D1E9000100F002F87E
:10429000206010BDF8B504460D466A4601F048FBA3
:1042A00000987E30009000281EDC00221346204635
:1042B000294604F0CFFB17D0002140F608004FF04C
:1042C000000006462046294604F07EFB044640F6E0
:1042D000080006EA00014FF0000034F0004004BF7F
:1042E0000220FDF7E1FF29E00098FF2828DB0021EC
:1042F00008464FF0000000F4400600221346204616
:10430000294604F073FC8CBF002501250220FDF72F
:10431000CBFF4FF0FF4446B1002D0CBF4FF400001F
:104320004FF48000B04218BF084C042108464FF0FB
:104330000000002D04BF84F00040F8BD2046F8BD09
:1043400020462946BDE8F84004F03EBBFFFF7F7FD2
:1043500010B504460A46D4E90003194602F077FB7B
:10436000C4E9000110BD30380A2801D2012070478D
:10437000002070472DE9F04104460D4604B10DB907
:10438000BDE8F08138480078012804D0022815D013
:10439000032864D150E0284604F00EFE80464FF01A
:1043A0007C5104F069FE0746216804F081FC064652
:1043B0002E4A2F4901F08AF8206051E02A4880688F
:1043C00088B9284604F0F8FD80462A4904F054FED6
:1043D0000746A16804F06CFC0646274A002101F05C
:1043E00075F8A06027E020488068012811D1284690
:1043F00004F0E2FD8046214904F03EFE0746E168F4
:1044000004F056FC06461E4A002101F05FF8E06009
:1044100011E0284604F0D0FD80464FF07C5104F0B6
:104420002BFE0746216904F043FC0646154A00218D
:1044300001F04CF8206113E0284604F0BDFD8046F1
:104440004FF07C5104F018FE0746616804F030FC20
:1044500006460D4A0D4901F039F8606000E000BFE2
:1044600000BF00BF8CE70000884E002000007042B3
:104470000000A041CDCC4C3E0000F041CDCC4C3DE5
:104480000000A040000048420000B442000020426A
:104490000020024908700249087070475C00002043
:1044A0005D00002001480078704700005C0000209B
:1044B0002DE9F04107460C4615461E46DDF81880EA
:1044C000B8F1000F0FD13046FFF7C5FE58B9384696
:1044D00002F06CFA38B9204602F068FA18B928469A
:1044E00002F064FA20B101200F490870BDE8F081A4
:1044F0000E48007840B933462A462146384600F037
:1045000037F80A49087009E033462A4621463846FA
:1045100000F00EF810B1002004490870034800783C
:104520000149087000BFE1E75C0000205D00002049
:104530002DE9F04107460C4615461E464FF07C51CA
:10454000304604F097FE80464146384604F060FD50
:104550000CD24146204604F05BFD07D24146284676
:1045600004F056FD02D20120BDE8F0810020FBE7F7
:104570002DE9F04107460C4615461E4631463846A1
:1045800004F046FE09D33146204604F041FE04D330
:104590003146284604F03CFE02D20120BDE8F081FD
:1045A0000020FBE72DE9FC4103F0BCFD02F090FD8B
:1045B00003F0E6F800F0EAFF27A12AA000F0D4FFFC
:1045C00003F02AFFFFF764FF00BF00F0C1F900BF4E
:1045D000002002F079F903F057FD02F0F1FA04F03F
:1045E000C9F802F06DFD0446204600F091F920461E
:1045F00000F076F9242221461B48FCF763F942F2C9
:10460000107002F0C5F800201849087008460078BC
:10461000174908700020174908701749086003F00F
:10462000C3FD1649086002F04BFD4468204604F0C3
:1046300013FB05460E4602F043FD0468204604F0D5
:104640000BFB07463A460B460DA106A0CDE90056E6
:1046500000F08AFFBDE8FC81696E697420737461A3
:104660007274000041505000B4050020600000202A
:1046700061000020680000206C0000207000002015
:10468000696E697420646F6E65207365743D252EB4
:10469000326620616C61726D3D252E32660000002D
:1046A0002DE9F04F87B003F07FFD834606E07348A5
:1046B0000068401C7149086002F0A6F86F48006865
:1046C0005845F4D106A803F075FD9DF8180020B1F7
:1046D00002F0FAFC054604F0BBF89DF81A00002829
:1046E00077D002F06BFD03F0DBFE03F091FE044691
:1046F00002F0E6FC8246A07C0090DAF8043094E8F0
:104700000700FFF7D5FE03F0EFFCFFF7CBFE814675
:10471000484602F0D9F8B9F1000F08D003205849F3
:10472000087000205749086002F016F81AE003F0FC
:10473000A5FC40B902205249087000205149086088
:1047400002F04CF80EE001204D490870E2684E4836
:10475000DAF8001002F03AFE4A490860084600689C
:1047600002F03CF84648007848490978884213D05E
:104770004348007802F0C2FA05464448007802F047
:10478000BDFA06462B46324641A145A000F0ECFE9C
:104790003B4800783D49087042480078814525D063
:1047A000B9F1000F1BD0A06804F056FA05460E467A
:1047B000606804F051FA07468846206804F04CFA15
:1047C00002460B46CDE90078CDE90256CDE9040159
:1047D00000E02CE034A132A000F006FF03E03BA192
:1047E0002FA000F0C1FE2F4880F800903B480068E1
:1047F000401C3A490860DAF8200008B9012001E0BD
:10480000DAF820003549096888420FD8002033497A
:10481000086001F0B7FF0546CDF800902B46194817
:10482000DAF800100268204602F0D8F900BF9DF8BF
:104830001900A8B103F0ECFD0446FFF733FE05466E
:1048400001F0A0FF064602F03BFC07460D48CDE90B
:1048500000653A46214603680948007804F02AF8C2
:1048600002F094FF00BF00F0B9FC00BF00F02CFA8A
:1048700000BF03F071FD07B0BDE8F08F70000020AD
:1048800060000020640000208805002061000020F6
:104890006D6F6465202573202D3E20257300000078
:1048A0004150500068000020616C61726D206F6E95
:1048B0002074313D252E32662074323D252E32661D
:1048C0002074333D252E326600000000616C617259
:1048D0006D20636C65617265640000006C000020EF
:1048E0003EB5044604B93EBD074800214FF07E5254
:1048F000CDE9002102900548D4E90323A16802F024
:104900004FFD00BFEFE700000000C842880500200F
:104910001CB5044604B91CBD606908B1012000E063
:1049200000208DF800004FF4B461A069B0FBF1F2F3
:1049300001FB1200ADF80200E069B0FBF1F201FBEF
:104940001200ADF80400684603F0B0FB00BFE2E7D8
:1049500008B501210820FFF757F84FF40050ADF8D3
:10496000000002208DF8020010208DF80300694637
:104970000548FEF781FD4FF400510348FEF710FE95
:1049800000200249087008BD000C01403A000020D8
:1049900010B50446074804702CB14FF40051064886
:1049A000FEF700FE04E04FF400510348FEF7F8FD67
:1049B00010BD00003A000020000C014000B587B097
:1049C00001210520FFF720F801210520FEF7FCFF5B
:1049D0007020ADF8180048208DF81B0003208DF8DA
:1049E0001A0006A94D48FEF747FD04210020FEF7F6
:1049F00023FD05210020FEF71FFD06210020FEF704
:104A00001BFD01A8FEF770FC00208DF808000C20AB
:104A10008DF8090000208DF80A001020019001A8EF
:104A2000FEF718FC2020019001A8FEF713FC40209F
:104A3000019001A8FEF70EFC03A8FFF7D9FA384849
:104A400000683849B0FBF1F0401E80B2ADF80C00B0
:104A50004FF6FF70ADF810000020ADF81200ADF871
:104A60000E0003A94FF08040FFF770FA012188077C
:104A7000FFF73FFA03A8FFF7BBFA29480068294966
:104A8000B0FBF1F0401E80B2ADF80C004FF6FF70A5
:104A9000ADF810000020ADF81200ADF80E0003A92B
:104AA0002148FFF753FA002210211F48FFF741FA6F
:104AB0001E208DF8000002208DF8010001208DF8E5
:104AC00002008DF803006846FEF730FF0A208DF8DB
:104AD000000002208DF801008DF8020001208DF801
:104AE00003006846FEF722FF17208DF80000022021
:104AF0008DF8010003208DF8020001208DF80300DD
:104B00006846FEF713FF01210748FFF7F2F900207E
:104B10000649087000F022F807B000BD0008014007
:104B2000C000002040420F00000800400B000020A1
:104B3000024609B1032A01D3002070470548805C72
:104B400008B90020F9E7044850F822000860012065
:104B5000F3E70000180000200C000020002013E004
:104B600000210F4A42F8201000220D490C3141F873
:104B700020200C3141F820200C3141F820200C314C
:104B800041F82020411CC8B20328E9D30021044A7F
:104B9000D16311640349097882F84410704700001A
:104BA000E80000200B00002000B587B0012109209B
:104BB000FEF72AFF01214805FEF706FF01210846FE
:104BC000FEF7F2FEC020ADF818001C208DF81B0087
:104BD00003208DF81A0006A92E48FEF74DFC2E483A
:104BE000FEF7A2FD0020ADF80C004BF6FF70ADF80B
:104BF0000E000020ADF810004FF48060ADF81200F8
:104C00000001ADF814002548029002A92248FEF7E1
:104C1000F9FD01212048FEF76EFD01224FF440719D
:104C20001D48FEF7E5FD03208DF8050001208DF8F5
:104C300006008DF807001F208DF8040001A8FEF77C
:104C400075FE20208DF8040001A8FEF76FFE1020ED
:104C50008DF8040000208DF8060001A8FEF766FE1E
:104C600000200F4908600F4908600F4908600120C3
:104C70000E49086000200E4908800E4908800E4940
:104C800008800E4908800E49086001200D4908601F
:104C900007B000BD000C014000540040A086010098
:104CA0003C00002040000020480000204C00002074
:104CB0005000002052000020540000205600002028
:104CC000580000204400002070B51E48006800B95C
:104CD00070BD1D48006800B9FAE71C48006800B1C3
:104CE000F6E71B4800881B490988084484B204F091
:104CF0000700C0F108051848008816490988401ABD
:104D000086B2AE4200DD2E4600F0D4FC38B94FF03A
:104D1000FF301249086000200B490860D8E71048AE
:104D20000C4A128881183246204600F051FD38B9ED
:104D30004FF0FF3009490860002003490860C7E7C9
:104D400000BFC5E7440000204800002058000020B4
:104D50005000002054000020520000204C00002091
:104D6000080500202DE9F04106460F461446434849
:104D7000006810B90020BDE8F08107B10CB900202F
:104D8000F9E73019B0F5807F01D90020F3E700F092
:104D900091FC08B90020EEE701213948FEF7E0FC5C
:104DA000384801F0A3FD28B901213548FEF7E4FC9D
:104DB0000020E0E70022A0213148FEF79DFD3248A7
:104DC00001F094FD28B901212D48FEF7D5FC002003
:104DD000D1E7F1B22A48FEF798FD2B48801C01F07C
:104DE00085FD28B901212648FEF7C6FC0020C2E750
:104DF00001212348FEF7B4FC224801F077FD28B9D1
:104E000001211F48FEF7B8FC0020B4E70122A021D1
:104E10001B48FEF771FD1B48401C01F067FD28B9D7
:104E200001211748FEF7A8FC0020A4E700251CE09C
:104E3000601E80B2A84207D100211148FEF734FC61
:104E400001210F48FEF798FC0E483F3001F04EFD5F
:104E500028B901210A48FEF727FC00208BE7084803
:104E6000FEF746FD7855681C85B2A542E0DB0121BE
:104E70000348FEF719FC01207DE7000044000020F4
:104E80000054004001000300820007002DE9F047B4
:104E900006460F46144600251948006810B9002040
:104EA000BDE8F08707B10CB90020F9E73019B0F57B
:104EB000807F01D90020F3E71DE070191FFA80F907
:104EC00009F00700C0F1080A601B1FFA80F8D045FE
:104ED00000DDD04600F0EEFB08B90020E0E77919CC
:104EE0004246484600F01CFC08B90020D8E705EB14
:104EF000080085B200BFA542DFDB00F0DBFBCFE797
:104F0000440000200146042901D3002070470148D5
:104F1000405CFBE72C0000201FB501210520FEF7B7
:104F200073FD0F20ADF8040048208DF80700022023
:104F30008DF8060001A93048FEF79EFA00210846C8
:104F4000FEF77AFA01210020FEF776FA022100200E
:104F5000FEF772FA03210020FEF76EFA02A8FEF7B0
:104F6000C3F900208DF80C0010208DF80D000120F1
:104F70008DF80E00029002A8FEF76CF90220029054
:104F800002A8FEF767F90420029002A8FEF762F972
:104F90000820029002A8FEF75DF903208DF80100B9
:104FA00000208DF8020001208DF8030006208DF806
:104FB00000006846FEF7BAFC07208DF8000068463E
:104FC000FEF7B4FC08208DF800006846FEF7AEFC42
:104FD00009208DF800006846FEF7A8FC002001F0CB
:104FE0000BFD012001F008FD022001F005FD03206A
:104FF00001F002FD1FBD000000080140002008E094
:10500000002100EB400202EBC002034B03F8121038
:10501000401C0428F4D37047B002002070B5044649
:105020000D46042C00D205B970BD04EB440101EB20
:10503000C401094A02EB410015222946FBF7A3FCF3
:10504000002004EB440101EBC401034A02EB4101DF
:10505000487500BFE8E70000B002002010B586B038
:1050600001210820FEF7D0FC01218805FEF7ACFCE9
:105070004FF44060ADF814001C208DF81700032099
:105080008DF8160005A95148FEF7F6F95048FEF7CD
:105090004BFB01A8FEF73BFC0020ADF808004BF6E7
:1050A000FF70ADF80A000020ADF80C004FF48060EE
:1050B000ADF80E000001ADF810004648019001A9BE
:1050C0004348FEF79FFB01214148FEF714FB0122F4
:1050D0004FF440713E48FEF78BFB03208DF8010032
:1050E00002208DF8020001208DF8030021208DF8A8
:1050F00000006846FEF71AFC22208DF80000684682
:10510000FEF714FCAE2001F087FE202001F084FEA3
:10511000002001F081FEB02001F07EFEC82001F0E9
:105120007BFE002001F078FE102001F075FE40208B
:1051300001F072FE812001F06FFE7F2001F06CFE15
:10514000A12001F069FEA62001F066FEA82001F072
:1051500063FE3F2001F060FEA42001F05DFED3203D
:1051600001F05AFE002001F057FED52001F054FE58
:10517000802001F051FED92001F04EFEF12001F017
:105180004BFEDA2001F048FE122001F045FEDB2044
:1051900001F042FE402001F03FFE8D2001F03CFE78
:1051A000142001F039FEAF2001F036FE002408E0A3
:1051B000002004EB440101EBC401074A02F811008E
:1051C000641C042CF4D306B010BD0000000C014098
:1051D00000580040801A0600B002002010B51648A2
:1051E000007808B9002010BD14490978B031C8B260
:1051F00001F012FE002001F00FFE102001F00CFE65
:105200000F490E4A127801EBC210802101F00BFE0B
:105210000A480078401C09490870084600780428AC
:1052200002D30020044908700348007808B1012027
:10523000D9E70020D7E7000038000020390000201F
:105240000803002010B501F087FD00200249087016
:1052500001200249087010BD3900002038000020EC
:1052600008B501210820FEF7CFFB4FF48050ADF8C0
:10527000000002208DF8020010208DF8030069461E
:105280000548FEF7F9F84FF480510348FEF788F916
:1052900000200249087008BD000C01401B000020DE
:1052A00010B50446074804702CB14FF480510648ED
:1052B000FEF778F904E04FF480510348FEF770F9E7
:1052C00010BD00001B000020000C014070B504461A
:1052D0000CB9002070BDFEF771FC05460548B5FB12
:1052E000F0F100FB11563C20B6FBF0F020800120CD
:1052F000F0E700008051010010B501214FF0C050CF
:10530000FEF762FB0120FEF749FB02F0C7FD01201A
:10531000FEF732FCFEF784FCFEF778FC02F09AFD03
:1053200010BD000000B587B0012144F20400FEF773
:105330006BFB4FF40070ADF8180003208DF81A00D5
:1053400018208DF81B0006A92048FEF795F84FF4A9
:105350008060ADF8180004208DF81B0006A91B48DA
:10536000FEF78AF802A8FEF756FF4FF4E1300290EC
:105370000C20ADF8120002A91548FEF7D7FE012156
:105380001348FEF777FE012240F225511048FEF740
:10539000A7FE25208DF8040002208DF805000020CE
:1053A0008DF8060001208DF8070001A8FEF7BEFA6F
:1053B0000020084908600849087008490870084931
:1053C00008600849086007B000BD000000080140FF
:1053D000003801401C000020200000203001002087
:1053E000240000202800002070B506460C4606B1B7
:1053F0000CB9002070BD0C48007808B90020F9E70E
:105400000A480568A54200D3651E2A460849304669
:10541000FBF713FA00207055044908600249087030
:10542000034908700120E5E7200000201C0000204F
:10543000300100202DE9F04104460CB9BDE8F081AF
:1054400020E0134D18E072B612480768781CC6B207
:105450001148006886420CD020781049C8550D4884
:105460000660012240F227710D48FEF739FE62B650
:1054700004E062B66D1E00BF002DE4D100BF05B987
:1054800003E0641C20780028DBD100BF00BFD5E713
:10549000400D03002400002028000020B00100205F
:1054A0000038014070B506460D4614462946304680
:1054B00003F0AEFD01D2284670BD2146304603F010
:1054C000A7FE01D22046F7E73046F5E770B506465D
:1054D0000D4614462946304603F09AFD01D228466F
:1054E00070BD2146304603F093FE01D22046F7E717
:1054F0003046F5E72DE9F04105460E46A8464FF047
:10550000FF37002406E018F80410384600F008F8C9
:105510000746641CB442F6D3F843BDE8F0810000AE
:105520004840002208E000F001031BB1044B83EA6D
:10553000500000E04008521C082AF4D370470000D5
:105540002083B8ED0FB438B5044606A80090214674
:1055500004A0009B059A00F01BF80020009038BCC6
:105560005DF814FB450000000FB438B5044606A8EA
:105570000090214604A0009B059A00F009F8002045
:10558000009038BC5DF814FB490000007047000033
:105590002DE9FF41E2B004460D4617463A46A021E8
:1055A0003AA8659BFAF766FE02F0FEFD80463AA82F
:1055B000434608A2DC21CDE90045029003A8FAF792
:1055C00073FE03AE3046FFF735FF00BF66B0BDE89F
:1055D000F08100005B256C755D5B25735D5B257359
:1055E0005D2025730D0A00000FB438B5044606A8E7
:1055F0000090214604A0009B059AFFF7C9FF0020F8
:10560000009038BC5DF814FB5700000070B50446EC
:105610000948FEF77AFC0546281986B23146064845
:10562000FEF790FC10210448FEF760FC01221021D7
:105630000148FEF77EFC70BD0008004010B5002256
:1056400010210448FEF775FC10210248FEF74EFCBD
:1056500010BD000000080040014621B1012904D01E
:10566000022906D103E0102070472020FCE74020EB
:10567000FAE70020F8E77CB506460C463046FFF70F
:10568000EBFF054605B97CBD6846FDF72DFE00958C
:1056900000208DF804000C208DF805000CB10120CD
:1056A00000E000208DF806006846FDF7D3FD00BF3E
:1056B000E9E7000010B5002428E04FF4003001F0C5
:1056C00045F908B9002010BD01211248FEF748F83D
:1056D000114801F00BF928B901210E48FEF74CF8EA
:1056E0000020F0E70022A0210A48FEF705F90B4848
:1056F00001F0FCF828B101210648FEF73DF8012031
:10570000E1E701210348FEF737F8641CC82CD4D325
:105710000020D8E700540040010003008200070089
:105720002DE9F04107460D46164605B116B9002091
:10573000BDE8F08101212348FEF712F8224801F06C
:10574000D5F828B901211F48FEF716F80020EFE729
:105750000022A0211B48FEF7CFF81C4801F0C6F834
:1057600028B901211748FEF707F80020E0E7F9B251
:105770001448FEF7CAF81548801C01F0B7F828B99C
:1057800001211048FDF7F8FF0020D1E7002410E0C8
:10579000295D0C48FEF7B9F80C48801C01F0A6F80A
:1057A00028B901210748FDF7E7FF0020C0E7601C8A
:1057B00084B2B442ECDB01210248FDF7DDFF012099
:1057C000B6E700000054004001000300820007001B
:1057D00070B58CB006460D46144605B114B90020CC
:1057E0000CB070BD01212F48FDF7BAFF2E4801F023
:1057F0007DF828B901212B48FDF7BEFF0020EFE717
:105800000022A0212748FEF777F8284801F06EF81B
:1058100028B901212348FDF7AFFF0020E0E7F1B2EE
:105820002048FEF772F82148801C01F05FF828B983
:1058300001211C48FDF7A0FF0020D1E700211C48F2
:10584000FDF766FC4FF48010FDF754FC154810304E
:105850000190029510200390049400200590802070
:10586000069000200790089009904FF400500A908D
:1058700000200B9001A90E48FDF775FC01220A21BA
:105880000B48FDF767FC01210648FDF740FF09487A
:10589000048001200849086001210548FDF738FC13
:1058A00001209DE700540040010003008200070032
:1058B0006C000240560000205800002070B50446DD
:1058C00025462868401C08B9012070BDFDF794FDED
:1058D0002046FDF711FD042803D0FDF74DFD002003
:1058E000F3E7FDF749FD0120EFE700002DE9F8435C
:1058F00004460D4616463C20B4FBF0F01821B0FBE0
:10590000F1F201FB12073C20B4FBF0F100FB11485F
:105910003B4604A231462846CDF80080FAF7C4FC85
:10592000BDE8F883253032753A2530327500000025
:1059300010B5144600222260114A21F00043934220
:10594000A8BF10BD53EA000208BF10BDB3F5801F09
:10595000A8BF226807DA362203F03AFD6FF035025D
:1059600021F000432260DFF81CC06FF31E510CEBE6
:1059700023531A4441F0FF5141F00051226010BD01
:105980000000F07F02FCFFFF10B5002203E00023BF
:105990008B54531CDAB2052AF9D330280CDB392892
:1059A0000ADCA0F1300303EB8303A24C23441C6800
:1059B0000C601B790B7110BD49287CD01CDC42287F
:1059C00031D010DC2E2870D006DC20286ED02A289A
:1059D0006DD02D286CD103E12F286AD03A2869D0E8
:1059E0004128F7D116E0A0F14303062B60D2DFE88F
:1059F00003F0232C363F4852A0F14B030F2BF5D276
:105A0000DFE803F0646F77828D96569FAAB3BCC51A
:105A1000D056DB007E230B7011234B708B70CB7044
:105A20007E230B7102E17F230B7049234B708B7037
:105A3000CB7036230B71F9E03E230B7041234B7082
:105A40008B70CB7022230B71F0E07F230B7041230E
:105A50004B708B702223CB701C230B71E6E07F23ED
:105A60000B7049234B708B70CB7041230B71DDE0C1
:105A70007F230B7009234B708B70CB7001230B714C
:105A8000D4E03E230B7041234B7049238B70CB70C5
:105A90003A230B71CAE07F230B7008234B708B7085
:105AA000CB707F230B71C1E005E092E090E0A7E0AE
:105AB000B1E09AE090E000230B7041234B707F230C
:105AC0008B704123CB7000230B71AFE07F230B70F1
:105AD00008234B7014238B702223CB7041230B714E
